{
  "_format": "hh-sol-artifact-1",
  "contractName": "KirbankToken721",
  "sourceName": "contracts/KirbankToken721.sol",
  "abi": [
    {
      "inputs": [
        {
          "internalType": "address payable",
          "name": "_receiver",
          "type": "address"
        }
      ],
      "stateMutability": "nonpayable",
      "type": "constructor"
    },
    {
      "anonymous": false,
      "inputs": [
        {
          "indexed": true,
          "internalType": "address",
          "name": "owner",
          "type": "address"
        },
        {
          "indexed": true,
          "internalType": "address",
          "name": "approved",
          "type": "address"
        },
        {
          "indexed": true,
          "internalType": "uint256",
          "name": "tokenId",
          "type": "uint256"
        }
      ],
      "name": "Approval",
      "type": "event"
    },
    {
      "anonymous": false,
      "inputs": [
        {
          "indexed": true,
          "internalType": "address",
          "name": "owner",
          "type": "address"
        },
        {
          "indexed": true,
          "internalType": "address",
          "name": "operator",
          "type": "address"
        },
        {
          "indexed": false,
          "internalType": "bool",
          "name": "approved",
          "type": "bool"
        }
      ],
      "name": "ApprovalForAll",
      "type": "event"
    },
    {
      "anonymous": false,
      "inputs": [
        {
          "indexed": true,
          "internalType": "address",
          "name": "previousOwner",
          "type": "address"
        },
        {
          "indexed": true,
          "internalType": "address",
          "name": "newOwner",
          "type": "address"
        }
      ],
      "name": "OwnershipTransferred",
      "type": "event"
    },
    {
      "anonymous": false,
      "inputs": [
        {
          "indexed": true,
          "internalType": "address",
          "name": "from",
          "type": "address"
        },
        {
          "indexed": true,
          "internalType": "address",
          "name": "to",
          "type": "address"
        },
        {
          "indexed": true,
          "internalType": "uint256",
          "name": "tokenId",
          "type": "uint256"
        }
      ],
      "name": "Transfer",
      "type": "event"
    },
    {
      "inputs": [
        {
          "internalType": "address",
          "name": "to",
          "type": "address"
        },
        {
          "internalType": "uint256",
          "name": "tokenId",
          "type": "uint256"
        }
      ],
      "name": "approve",
      "outputs": [],
      "stateMutability": "nonpayable",
      "type": "function"
    },
    {
      "inputs": [
        {
          "internalType": "address",
          "name": "owner",
          "type": "address"
        }
      ],
      "name": "balanceOf",
      "outputs": [
        {
          "internalType": "uint256",
          "name": "",
          "type": "uint256"
        }
      ],
      "stateMutability": "view",
      "type": "function"
    },
    {
      "inputs": [],
      "name": "getAllKirbankTokens",
      "outputs": [
        {
          "components": [
            {
              "internalType": "address payable",
              "name": "ownerTransfer",
              "type": "address"
            },
            {
              "internalType": "address",
              "name": "owner",
              "type": "address"
            },
            {
              "internalType": "string",
              "name": "imageUrl",
              "type": "string"
            },
            {
              "internalType": "string",
              "name": "cost",
              "type": "string"
            },
            {
              "internalType": "string",
              "name": "amount",
              "type": "string"
            },
            {
              "internalType": "string",
              "name": "yearsSet",
              "type": "string"
            },
            {
              "internalType": "string",
              "name": "dateCreate",
              "type": "string"
            },
            {
              "internalType": "string",
              "name": "dataUri",
              "type": "string"
            }
          ],
          "internalType": "struct KirbankToken721.KirbankTokenItem[]",
          "name": "",
          "type": "tuple[]"
        }
      ],
      "stateMutability": "view",
      "type": "function"
    },
    {
      "inputs": [
        {
          "internalType": "uint256",
          "name": "tokenId",
          "type": "uint256"
        }
      ],
      "name": "getApproved",
      "outputs": [
        {
          "internalType": "address",
          "name": "",
          "type": "address"
        }
      ],
      "stateMutability": "view",
      "type": "function"
    },
    {
      "inputs": [
        {
          "internalType": "address",
          "name": "owner",
          "type": "address"
        }
      ],
      "name": "getKirbankTokensByOwner",
      "outputs": [
        {
          "components": [
            {
              "internalType": "address payable",
              "name": "ownerTransfer",
              "type": "address"
            },
            {
              "internalType": "address",
              "name": "owner",
              "type": "address"
            },
            {
              "internalType": "string",
              "name": "imageUrl",
              "type": "string"
            },
            {
              "internalType": "string",
              "name": "cost",
              "type": "string"
            },
            {
              "internalType": "string",
              "name": "amount",
              "type": "string"
            },
            {
              "internalType": "string",
              "name": "yearsSet",
              "type": "string"
            },
            {
              "internalType": "string",
              "name": "dateCreate",
              "type": "string"
            },
            {
              "internalType": "string",
              "name": "dataUri",
              "type": "string"
            }
          ],
          "internalType": "struct KirbankToken721.KirbankTokenItem[]",
          "name": "",
          "type": "tuple[]"
        }
      ],
      "stateMutability": "view",
      "type": "function"
    },
    {
      "inputs": [
        {
          "internalType": "address",
          "name": "owner",
          "type": "address"
        },
        {
          "internalType": "address",
          "name": "operator",
          "type": "address"
        }
      ],
      "name": "isApprovedForAll",
      "outputs": [
        {
          "internalType": "bool",
          "name": "",
          "type": "bool"
        }
      ],
      "stateMutability": "view",
      "type": "function"
    },
    {
      "inputs": [
        {
          "internalType": "string",
          "name": "imageUrl",
          "type": "string"
        },
        {
          "internalType": "string",
          "name": "cost",
          "type": "string"
        },
        {
          "internalType": "string",
          "name": "yearsSet",
          "type": "string"
        },
        {
          "internalType": "string",
          "name": "dateCreate",
          "type": "string"
        }
      ],
      "name": "mint",
      "outputs": [],
      "stateMutability": "payable",
      "type": "function"
    },
    {
      "inputs": [],
      "name": "name",
      "outputs": [
        {
          "internalType": "string",
          "name": "",
          "type": "string"
        }
      ],
      "stateMutability": "view",
      "type": "function"
    },
    {
      "inputs": [],
      "name": "owner",
      "outputs": [
        {
          "internalType": "address",
          "name": "",
          "type": "address"
        }
      ],
      "stateMutability": "view",
      "type": "function"
    },
    {
      "inputs": [
        {
          "internalType": "uint256",
          "name": "tokenId",
          "type": "uint256"
        }
      ],
      "name": "ownerOf",
      "outputs": [
        {
          "internalType": "address",
          "name": "",
          "type": "address"
        }
      ],
      "stateMutability": "view",
      "type": "function"
    },
    {
      "inputs": [],
      "name": "receiver",
      "outputs": [
        {
          "internalType": "address payable",
          "name": "",
          "type": "address"
        }
      ],
      "stateMutability": "view",
      "type": "function"
    },
    {
      "inputs": [],
      "name": "renounceOwnership",
      "outputs": [],
      "stateMutability": "nonpayable",
      "type": "function"
    },
    {
      "inputs": [
        {
          "internalType": "address",
          "name": "to",
          "type": "address"
        },
        {
          "internalType": "string",
          "name": "imageUrl",
          "type": "string"
        },
        {
          "internalType": "string",
          "name": "cost",
          "type": "string"
        },
        {
          "internalType": "string",
          "name": "yearsSet",
          "type": "string"
        },
        {
          "internalType": "string",
          "name": "dateCreate",
          "type": "string"
        }
      ],
      "name": "safeMint",
      "outputs": [],
      "stateMutability": "payable",
      "type": "function"
    },
    {
      "inputs": [
        {
          "internalType": "address",
          "name": "from",
          "type": "address"
        },
        {
          "internalType": "address",
          "name": "to",
          "type": "address"
        },
        {
          "internalType": "uint256",
          "name": "tokenId",
          "type": "uint256"
        }
      ],
      "name": "safeTransferFrom",
      "outputs": [],
      "stateMutability": "nonpayable",
      "type": "function"
    },
    {
      "inputs": [
        {
          "internalType": "address",
          "name": "from",
          "type": "address"
        },
        {
          "internalType": "address",
          "name": "to",
          "type": "address"
        },
        {
          "internalType": "uint256",
          "name": "tokenId",
          "type": "uint256"
        },
        {
          "internalType": "bytes",
          "name": "data",
          "type": "bytes"
        }
      ],
      "name": "safeTransferFrom",
      "outputs": [],
      "stateMutability": "nonpayable",
      "type": "function"
    },
    {
      "inputs": [
        {
          "internalType": "address",
          "name": "operator",
          "type": "address"
        },
        {
          "internalType": "bool",
          "name": "approved",
          "type": "bool"
        }
      ],
      "name": "setApprovalForAll",
      "outputs": [],
      "stateMutability": "nonpayable",
      "type": "function"
    },
    {
      "inputs": [
        {
          "internalType": "bytes4",
          "name": "interfaceId",
          "type": "bytes4"
        }
      ],
      "name": "supportsInterface",
      "outputs": [
        {
          "internalType": "bool",
          "name": "",
          "type": "bool"
        }
      ],
      "stateMutability": "view",
      "type": "function"
    },
    {
      "inputs": [],
      "name": "symbol",
      "outputs": [
        {
          "internalType": "string",
          "name": "",
          "type": "string"
        }
      ],
      "stateMutability": "view",
      "type": "function"
    },
    {
      "inputs": [
        {
          "internalType": "uint256",
          "name": "index",
          "type": "uint256"
        }
      ],
      "name": "tokenByIndex",
      "outputs": [
        {
          "internalType": "uint256",
          "name": "",
          "type": "uint256"
        }
      ],
      "stateMutability": "view",
      "type": "function"
    },
    {
      "inputs": [
        {
          "internalType": "address",
          "name": "owner",
          "type": "address"
        },
        {
          "internalType": "uint256",
          "name": "index",
          "type": "uint256"
        }
      ],
      "name": "tokenOfOwnerByIndex",
      "outputs": [
        {
          "internalType": "uint256",
          "name": "",
          "type": "uint256"
        }
      ],
      "stateMutability": "view",
      "type": "function"
    },
    {
      "inputs": [
        {
          "internalType": "uint256",
          "name": "tokenId",
          "type": "uint256"
        }
      ],
      "name": "tokenURI",
      "outputs": [
        {
          "internalType": "string",
          "name": "",
          "type": "string"
        }
      ],
      "stateMutability": "view",
      "type": "function"
    },
    {
      "inputs": [],
      "name": "totalSupply",
      "outputs": [
        {
          "internalType": "uint256",
          "name": "",
          "type": "uint256"
        }
      ],
      "stateMutability": "view",
      "type": "function"
    },
    {
      "inputs": [
        {
          "internalType": "address",
          "name": "from",
          "type": "address"
        },
        {
          "internalType": "address",
          "name": "to",
          "type": "address"
        },
        {
          "internalType": "uint256",
          "name": "tokenId",
          "type": "uint256"
        }
      ],
      "name": "transferFrom",
      "outputs": [],
      "stateMutability": "nonpayable",
      "type": "function"
    },
    {
      "inputs": [
        {
          "internalType": "address",
          "name": "newOwner",
          "type": "address"
        }
      ],
      "name": "transferOwnership",
      "outputs": [],
      "stateMutability": "nonpayable",
      "type": "function"
    }
  ],
  "bytecode": "0x60806040523480156200001157600080fd5b506040516200624e3803806200624e833981810160405281019062000037919062000269565b6040518060400160405280600781526020017f4b697262616e6b000000000000000000000000000000000000000000000000008152506040518060400160405280600381526020017f4b544200000000000000000000000000000000000000000000000000000000008152508160009081620000b4919062000515565b508060019081620000c6919062000515565b505050620000e9620000dd6200013160201b60201c565b6200013960201b60201c565b80600d60006101000a81548173ffffffffffffffffffffffffffffffffffffffff021916908373ffffffffffffffffffffffffffffffffffffffff16021790555050620005fc565b600033905090565b6000600b60009054906101000a900473ffffffffffffffffffffffffffffffffffffffff16905081600b60006101000a81548173ffffffffffffffffffffffffffffffffffffffff021916908373ffffffffffffffffffffffffffffffffffffffff1602179055508173ffffffffffffffffffffffffffffffffffffffff168173ffffffffffffffffffffffffffffffffffffffff167f8be0079c531659141344cd1fd0a4f28419497f9722a3daafe3b4186f6b6457e060405160405180910390a35050565b600080fd5b600073ffffffffffffffffffffffffffffffffffffffff82169050919050565b6000620002318262000204565b9050919050565b620002438162000224565b81146200024f57600080fd5b50565b600081519050620002638162000238565b92915050565b600060208284031215620002825762000281620001ff565b5b6000620002928482850162000252565b91505092915050565b600081519050919050565b7f4e487b7100000000000000000000000000000000000000000000000000000000600052604160045260246000fd5b7f4e487b7100000000000000000000000000000000000000000000000000000000600052602260045260246000fd5b600060028204905060018216806200031d57607f821691505b602082108103620003335762000332620002d5565b5b50919050565b60008190508160005260206000209050919050565b60006020601f8301049050919050565b600082821b905092915050565b6000600883026200039d7fffffffffffffffffffffffffffffffffffffffffffffffffffffffffffffffff826200035e565b620003a986836200035e565b95508019841693508086168417925050509392505050565b6000819050919050565b6000819050919050565b6000620003f6620003f0620003ea84620003c1565b620003cb565b620003c1565b9050919050565b6000819050919050565b6200041283620003d5565b6200042a6200042182620003fd565b8484546200036b565b825550505050565b600090565b6200044162000432565b6200044e81848462000407565b505050565b5b8181101562000476576200046a60008262000437565b60018101905062000454565b5050565b601f821115620004c5576200048f8162000339565b6200049a846200034e565b81016020851015620004aa578190505b620004c2620004b9856200034e565b83018262000453565b50505b505050565b600082821c905092915050565b6000620004ea60001984600802620004ca565b1980831691505092915050565b6000620005058383620004d7565b9150826002028217905092915050565b62000520826200029b565b67ffffffffffffffff8111156200053c576200053b620002a6565b5b62000548825462000304565b620005558282856200047a565b600060209050601f8311600181146200058d576000841562000578578287015190505b620005848582620004f7565b865550620005f4565b601f1984166200059d8662000339565b60005b82811015620005c757848901518255600182019150602085019450602081019050620005a0565b86831015620005e75784890151620005e3601f891682620004d7565b8355505b6001600288020188555050505b505050505050565b615c42806200060c6000396000f3fe60806040526004361061014b5760003560e01c80636352211e116100b6578063a22cb4651161006f578063a22cb4651461049c578063b88d4fde146104c5578063c87b56dd146104ee578063e985e9c51461052b578063f2fde38b14610568578063f7260d3e146105915761014b565b80636352211e1461038a57806370a08231146103c7578063715018a6146104045780638da5cb5b1461041b57806395d89b41146104465780639737d1a5146104715761014b565b806323b872dd1161010857806323b872dd14610265578063296c2b3a1461028e5780632f745c59146102aa57806342842e0e146102e757806343d905c2146103105780634f6ccce71461034d5761014b565b806301ffc9a71461015057806302341c711461018d57806306fdde03146101a9578063081812fc146101d4578063095ea7b31461021157806318160ddd1461023a575b600080fd5b34801561015c57600080fd5b5061017760048036038101906101729190613da0565b6105bc565b6040516101849190613de8565b60405180910390f35b6101a760048036038101906101a29190613f49565b6105ce565b005b3480156101b557600080fd5b506101be6108ac565b6040516101cb919061409f565b60405180910390f35b3480156101e057600080fd5b506101fb60048036038101906101f691906140f7565b61093e565b6040516102089190614165565b60405180910390f35b34801561021d57600080fd5b50610238600480360381019061023391906141ac565b610984565b005b34801561024657600080fd5b5061024f610a9b565b60405161025c91906141fb565b60405180910390f35b34801561027157600080fd5b5061028c60048036038101906102879190614216565b610aa8565b005b6102a860048036038101906102a39190614269565b610b08565b005b3480156102b657600080fd5b506102d160048036038101906102cc91906141ac565b610daa565b6040516102de91906141fb565b60405180910390f35b3480156102f357600080fd5b5061030e60048036038101906103099190614216565b610e4f565b005b34801561031c57600080fd5b5061033760048036038101906103329190614354565b610e6f565b6040516103449190614590565b60405180910390f35b34801561035957600080fd5b50610374600480360381019061036f91906140f7565b611491565b60405161038191906141fb565b60405180910390f35b34801561039657600080fd5b506103b160048036038101906103ac91906140f7565b611502565b6040516103be9190614165565b60405180910390f35b3480156103d357600080fd5b506103ee60048036038101906103e99190614354565b611588565b6040516103fb91906141fb565b60405180910390f35b34801561041057600080fd5b5061041961163f565b005b34801561042757600080fd5b50610430611653565b60405161043d9190614165565b60405180910390f35b34801561045257600080fd5b5061045b61167d565b604051610468919061409f565b60405180910390f35b34801561047d57600080fd5b5061048661170f565b6040516104939190614590565b60405180910390f35b3480156104a857600080fd5b506104c360048036038101906104be91906145de565b611b87565b005b3480156104d157600080fd5b506104ec60048036038101906104e791906146bf565b611b9d565b005b3480156104fa57600080fd5b50610515600480360381019061051091906140f7565b611bff565b604051610522919061409f565b60405180910390f35b34801561053757600080fd5b50610552600480360381019061054d9190614742565b611c59565b60405161055f9190613de8565b60405180910390f35b34801561057457600080fd5b5061058f600480360381019061058a9190614354565b611ced565b005b34801561059d57600080fd5b506105a6611d70565b6040516105b39190614791565b60405180910390f35b60006105c782611d96565b9050919050565b60006105da600c611e10565b90506000349050600061062f6105ef84611e1e565b88886105fa86611e1e565b89896106058a611e1e565b60405160200161061b9796959493929190614ae0565b604051602081830303815290604052611eec565b9050600e6040518061010001604052803373ffffffffffffffffffffffffffffffffffffffff1681526020013373ffffffffffffffffffffffffffffffffffffffff16815260200189815260200188815260200161068c85611e1e565b8152602001878152602001868152602001836040516020016106ae9190614bf4565b604051602081830303815290604052815250908060018154018082558091505060019003906000526020600020906008020160009091909190915060008201518160000160006101000a81548173ffffffffffffffffffffffffffffffffffffffff021916908373ffffffffffffffffffffffffffffffffffffffff16021790555060208201518160010160006101000a81548173ffffffffffffffffffffffffffffffffffffffff021916908373ffffffffffffffffffffffffffffffffffffffff160217905550604082015181600201908161078c9190614e22565b5060608201518160030190816107a29190614e22565b5060808201518160040190816107b89190614e22565b5060a08201518160050190816107ce9190614e22565b5060c08201518160060190816107e49190614e22565b5060e08201518160070190816107fa9190614e22565b505050600d60009054906101000a900473ffffffffffffffffffffffffffffffffffffffff1673ffffffffffffffffffffffffffffffffffffffff166108fc349081150290604051600060405180830381858888f19350505050158015610865573d6000803e3d6000fd5b50610870338461204f565b61089983826040516020016108859190614bf4565b60405160208183030381529060405261206d565b6108a3600c6120da565b50505050505050565b6060600080546108bb90614c45565b80601f01602080910402602001604051908101604052809291908181526020018280546108e790614c45565b80156109345780601f1061090957610100808354040283529160200191610934565b820191906000526020600020905b81548152906001019060200180831161091757829003601f168201915b5050505050905090565b6000610949826120f0565b6004600083815260200190815260200160002060009054906101000a900473ffffffffffffffffffffffffffffffffffffffff169050919050565b600061098f82611502565b90508073ffffffffffffffffffffffffffffffffffffffff168373ffffffffffffffffffffffffffffffffffffffff16036109ff576040517f08c379a00000000000000000000000000000000000000000000000000000000081526004016109f690614f66565b60405180910390fd5b8073ffffffffffffffffffffffffffffffffffffffff16610a1e61213b565b73ffffffffffffffffffffffffffffffffffffffff161480610a4d5750610a4c81610a4761213b565b611c59565b5b610a8c576040517f08c379a0000000000000000000000000000000000000000000000000000000008152600401610a8390614ff8565b60405180910390fd5b610a968383612143565b505050565b6000600880549050905090565b610ab9610ab361213b565b826121fc565b610af8576040517f08c379a0000000000000000000000000000000000000000000000000000000008152600401610aef9061508a565b60405180910390fd5b610b03838383612291565b505050565b610b1061258a565b6000610b1c600c611e10565b9050600034905060008111610b66576040517f08c379a0000000000000000000000000000000000000000000000000000000008152600401610b5d9061511c565b60405180910390fd5b6000610bb4610b7484611e1e565b8888610b7f86611e1e565b8989610b8a8a611e1e565b604051602001610ba09796959493929190614ae0565b604051602081830303815290604052611eec565b9050600e6040518061010001604052803373ffffffffffffffffffffffffffffffffffffffff1681526020013373ffffffffffffffffffffffffffffffffffffffff168152602001898152602001888152602001610c1185611e1e565b815260200187815260200186815260200183604051602001610c339190614bf4565b604051602081830303815290604052815250908060018154018082558091505060019003906000526020600020906008020160009091909190915060008201518160000160006101000a81548173ffffffffffffffffffffffffffffffffffffffff021916908373ffffffffffffffffffffffffffffffffffffffff16021790555060208201518160010160006101000a81548173ffffffffffffffffffffffffffffffffffffffff021916908373ffffffffffffffffffffffffffffffffffffffff1602179055506040820151816002019081610d119190614e22565b506060820151816003019081610d279190614e22565b506080820151816004019081610d3d9190614e22565b5060a0820151816005019081610d539190614e22565b5060c0820151816006019081610d699190614e22565b5060e0820151816007019081610d7f9190614e22565b505050610d8c888461204f565b610d96838261206d565b610da0600c6120da565b5050505050505050565b6000610db583611588565b8210610df6576040517f08c379a0000000000000000000000000000000000000000000000000000000008152600401610ded906151ae565b60405180910390fd5b600660008473ffffffffffffffffffffffffffffffffffffffff1673ffffffffffffffffffffffffffffffffffffffff168152602001908152602001600020600083815260200190815260200160002054905092915050565b610e6a83838360405180602001604052806000815250611b9d565b505050565b60606000805b600e80549050811015610f1d578373ffffffffffffffffffffffffffffffffffffffff16600e8281548110610ead57610eac6151ce565b5b906000526020600020906008020160010160009054906101000a900473ffffffffffffffffffffffffffffffffffffffff1673ffffffffffffffffffffffffffffffffffffffff1603610f0a57600182610f07919061522c565b91505b8080610f1590615260565b915050610e75565b5060008167ffffffffffffffff811115610f3a57610f39613e1e565b5b604051908082528060200260200182016040528015610f7357816020015b610f60613cc3565b815260200190600190039081610f585790505b5090506000805b600e80549050811015611485578573ffffffffffffffffffffffffffffffffffffffff16600e8281548110610fb257610fb16151ce565b5b906000526020600020906008020160010160009054906101000a900473ffffffffffffffffffffffffffffffffffffffff1673ffffffffffffffffffffffffffffffffffffffff160361147257600e8181548110611013576110126151ce565b5b9060005260206000209060080201604051806101000160405290816000820160009054906101000a900473ffffffffffffffffffffffffffffffffffffffff1673ffffffffffffffffffffffffffffffffffffffff1673ffffffffffffffffffffffffffffffffffffffff1681526020016001820160009054906101000a900473ffffffffffffffffffffffffffffffffffffffff1673ffffffffffffffffffffffffffffffffffffffff1673ffffffffffffffffffffffffffffffffffffffff1681526020016002820180546110e990614c45565b80601f016020809104026020016040519081016040528092919081815260200182805461111590614c45565b80156111625780601f1061113757610100808354040283529160200191611162565b820191906000526020600020905b81548152906001019060200180831161114557829003601f168201915b5050505050815260200160038201805461117b90614c45565b80601f01602080910402602001604051908101604052809291908181526020018280546111a790614c45565b80156111f45780601f106111c9576101008083540402835291602001916111f4565b820191906000526020600020905b8154815290600101906020018083116111d757829003601f168201915b5050505050815260200160048201805461120d90614c45565b80601f016020809104026020016040519081016040528092919081815260200182805461123990614c45565b80156112865780601f1061125b57610100808354040283529160200191611286565b820191906000526020600020905b81548152906001019060200180831161126957829003601f168201915b5050505050815260200160058201805461129f90614c45565b80601f01602080910402602001604051908101604052809291908181526020018280546112cb90614c45565b80156113185780601f106112ed57610100808354040283529160200191611318565b820191906000526020600020905b8154815290600101906020018083116112fb57829003601f168201915b5050505050815260200160068201805461133190614c45565b80601f016020809104026020016040519081016040528092919081815260200182805461135d90614c45565b80156113aa5780601f1061137f576101008083540402835291602001916113aa565b820191906000526020600020905b81548152906001019060200180831161138d57829003601f168201915b505050505081526020016007820180546113c390614c45565b80601f01602080910402602001604051908101604052809291908181526020018280546113ef90614c45565b801561143c5780601f106114115761010080835404028352916020019161143c565b820191906000526020600020905b81548152906001019060200180831161141f57829003601f168201915b505050505081525050838381518110611458576114576151ce565b5b6020026020010181905250818061146e90615260565b9250505b808061147d90615260565b915050610f7a565b50819350505050919050565b600061149b610a9b565b82106114dc576040517f08c379a00000000000000000000000000000000000000000000000000000000081526004016114d39061531a565b60405180910390fd5b600882815481106114f0576114ef6151ce565b5b90600052602060002001549050919050565b60008061150e83612608565b9050600073ffffffffffffffffffffffffffffffffffffffff168173ffffffffffffffffffffffffffffffffffffffff160361157f576040517f08c379a000000000000000000000000000000000000000000000000000000000815260040161157690615386565b60405180910390fd5b80915050919050565b60008073ffffffffffffffffffffffffffffffffffffffff168273ffffffffffffffffffffffffffffffffffffffff16036115f8576040517f08c379a00000000000000000000000000000000000000000000000000000000081526004016115ef90615418565b60405180910390fd5b600360008373ffffffffffffffffffffffffffffffffffffffff1673ffffffffffffffffffffffffffffffffffffffff168152602001908152602001600020549050919050565b61164761258a565b6116516000612645565b565b6000600b60009054906101000a900473ffffffffffffffffffffffffffffffffffffffff16905090565b60606001805461168c90614c45565b80601f01602080910402602001604051908101604052809291908181526020018280546116b890614c45565b80156117055780601f106116da57610100808354040283529160200191611705565b820191906000526020600020905b8154815290600101906020018083116116e857829003601f168201915b5050505050905090565b6060600e805480602002602001604051908101604052809291908181526020016000905b82821015611b7e5783829060005260206000209060080201604051806101000160405290816000820160009054906101000a900473ffffffffffffffffffffffffffffffffffffffff1673ffffffffffffffffffffffffffffffffffffffff1673ffffffffffffffffffffffffffffffffffffffff1681526020016001820160009054906101000a900473ffffffffffffffffffffffffffffffffffffffff1673ffffffffffffffffffffffffffffffffffffffff1673ffffffffffffffffffffffffffffffffffffffff16815260200160028201805461181390614c45565b80601f016020809104026020016040519081016040528092919081815260200182805461183f90614c45565b801561188c5780601f106118615761010080835404028352916020019161188c565b820191906000526020600020905b81548152906001019060200180831161186f57829003601f168201915b505050505081526020016003820180546118a590614c45565b80601f01602080910402602001604051908101604052809291908181526020018280546118d190614c45565b801561191e5780601f106118f35761010080835404028352916020019161191e565b820191906000526020600020905b81548152906001019060200180831161190157829003601f168201915b5050505050815260200160048201805461193790614c45565b80601f016020809104026020016040519081016040528092919081815260200182805461196390614c45565b80156119b05780601f10611985576101008083540402835291602001916119b0565b820191906000526020600020905b81548152906001019060200180831161199357829003601f168201915b505050505081526020016005820180546119c990614c45565b80601f01602080910402602001604051908101604052809291908181526020018280546119f590614c45565b8015611a425780601f10611a1757610100808354040283529160200191611a42565b820191906000526020600020905b815481529060010190602001808311611a2557829003601f168201915b50505050508152602001600682018054611a5b90614c45565b80601f0160208091040260200160405190810160405280929190818152602001828054611a8790614c45565b8015611ad45780601f10611aa957610100808354040283529160200191611ad4565b820191906000526020600020905b815481529060010190602001808311611ab757829003601f168201915b50505050508152602001600782018054611aed90614c45565b80601f0160208091040260200160405190810160405280929190818152602001828054611b1990614c45565b8015611b665780601f10611b3b57610100808354040283529160200191611b66565b820191906000526020600020905b815481529060010190602001808311611b4957829003601f168201915b50505050508152505081526020019060010190611733565b50505050905090565b611b99611b9261213b565b838361270b565b5050565b611bae611ba861213b565b836121fc565b611bed576040517f08c379a0000000000000000000000000000000000000000000000000000000008152600401611be49061508a565b60405180910390fd5b611bf984848484612877565b50505050565b6060611c0a826128d3565b611c49576040517f08c379a0000000000000000000000000000000000000000000000000000000008152600401611c4090615484565b60405180910390fd5b611c5282612914565b9050919050565b6000600560008473ffffffffffffffffffffffffffffffffffffffff1673ffffffffffffffffffffffffffffffffffffffff16815260200190815260200160002060008373ffffffffffffffffffffffffffffffffffffffff1673ffffffffffffffffffffffffffffffffffffffff16815260200190815260200160002060009054906101000a900460ff16905092915050565b611cf561258a565b600073ffffffffffffffffffffffffffffffffffffffff168173ffffffffffffffffffffffffffffffffffffffff1603611d64576040517f08c379a0000000000000000000000000000000000000000000000000000000008152600401611d5b90615516565b60405180910390fd5b611d6d81612645565b50565b600d60009054906101000a900473ffffffffffffffffffffffffffffffffffffffff1681565b60007f780e9d63000000000000000000000000000000000000000000000000000000007bffffffffffffffffffffffffffffffffffffffffffffffffffffffff1916827bffffffffffffffffffffffffffffffffffffffffffffffffffffffff19161480611e095750611e0882612a26565b5b9050919050565b600081600001549050919050565b606060006001611e2d84612b08565b01905060008167ffffffffffffffff811115611e4c57611e4b613e1e565b5b6040519080825280601f01601f191660200182016040528015611e7e5781602001600182028036833780820191505090505b509050600082602001820190505b600115611ee1578080600190039150507f3031323334353637383961626364656600000000000000000000000000000000600a86061a8153600a8581611ed557611ed4615536565b5b04945060008503611e8c575b819350505050919050565b60606000825103611f0e5760405180602001604052806000815250905061204a565b6000604051806060016040528060408152602001615bcd6040913990506000600360028551611f3d919061522c565b611f479190615565565b6004611f539190615596565b67ffffffffffffffff811115611f6c57611f6b613e1e565b5b6040519080825280601f01601f191660200182016040528015611f9e5781602001600182028036833780820191505090505b509050600182016020820185865187015b8082101561200a576003820191508151603f8160121c168501518453600184019350603f81600c1c168501518453600184019350603f8160061c168501518453600184019350603f8116850151845360018401935050611faf565b5050600386510660018114612026576002811461203957612041565b603d6001830353603d6002830353612041565b603d60018303535b50505080925050505b919050565b612069828260405180602001604052806000815250612c5b565b5050565b612076826128d3565b6120b5576040517f08c379a00000000000000000000000000000000000000000000000000000000081526004016120ac9061564a565b60405180910390fd5b80600a600084815260200190815260200160002090816120d59190614e22565b505050565b6001816000016000828254019250508190555050565b6120f9816128d3565b612138576040517f08c379a000000000000000000000000000000000000000000000000000000000815260040161212f90615386565b60405180910390fd5b50565b600033905090565b816004600083815260200190815260200160002060006101000a81548173ffffffffffffffffffffffffffffffffffffffff021916908373ffffffffffffffffffffffffffffffffffffffff160217905550808273ffffffffffffffffffffffffffffffffffffffff166121b683611502565b73ffffffffffffffffffffffffffffffffffffffff167f8c5be1e5ebec7d5bd14f71427d1e84f3dd0314c0f7b2291e5b200ac8c7c3b92560405160405180910390a45050565b60008061220883611502565b90508073ffffffffffffffffffffffffffffffffffffffff168473ffffffffffffffffffffffffffffffffffffffff16148061224a57506122498185611c59565b5b8061228857508373ffffffffffffffffffffffffffffffffffffffff166122708461093e565b73ffffffffffffffffffffffffffffffffffffffff16145b91505092915050565b8273ffffffffffffffffffffffffffffffffffffffff166122b182611502565b73ffffffffffffffffffffffffffffffffffffffff1614612307576040517f08c379a00000000000000000000000000000000000000000000000000000000081526004016122fe906156dc565b60405180910390fd5b600073ffffffffffffffffffffffffffffffffffffffff168273ffffffffffffffffffffffffffffffffffffffff1603612376576040517f08c379a000000000000000000000000000000000000000000000000000000000815260040161236d9061576e565b60405180910390fd5b6123838383836001612cb6565b8273ffffffffffffffffffffffffffffffffffffffff166123a382611502565b73ffffffffffffffffffffffffffffffffffffffff16146123f9576040517f08c379a00000000000000000000000000000000000000000000000000000000081526004016123f0906156dc565b60405180910390fd5b6004600082815260200190815260200160002060006101000a81549073ffffffffffffffffffffffffffffffffffffffff02191690556001600360008573ffffffffffffffffffffffffffffffffffffffff1673ffffffffffffffffffffffffffffffffffffffff168152602001908152602001600020600082825403925050819055506001600360008473ffffffffffffffffffffffffffffffffffffffff1673ffffffffffffffffffffffffffffffffffffffff16815260200190815260200160002060008282540192505081905550816002600083815260200190815260200160002060006101000a81548173ffffffffffffffffffffffffffffffffffffffff021916908373ffffffffffffffffffffffffffffffffffffffff160217905550808273ffffffffffffffffffffffffffffffffffffffff168473ffffffffffffffffffffffffffffffffffffffff167fddf252ad1be2c89b69c2b068fc378daa952ba7f163c4a11628f55a4df523b3ef60405160405180910390a46125858383836001613283565b505050565b61259261213b565b73ffffffffffffffffffffffffffffffffffffffff166125b0611653565b73ffffffffffffffffffffffffffffffffffffffff1614612606576040517f08c379a00000000000000000000000000000000000000000000000000000000081526004016125fd906157da565b60405180910390fd5b565b60006002600083815260200190815260200160002060009054906101000a900473ffffffffffffffffffffffffffffffffffffffff169050919050565b6000600b60009054906101000a900473ffffffffffffffffffffffffffffffffffffffff16905081600b60006101000a81548173ffffffffffffffffffffffffffffffffffffffff021916908373ffffffffffffffffffffffffffffffffffffffff1602179055508173ffffffffffffffffffffffffffffffffffffffff168173ffffffffffffffffffffffffffffffffffffffff167f8be0079c531659141344cd1fd0a4f28419497f9722a3daafe3b4186f6b6457e060405160405180910390a35050565b8173ffffffffffffffffffffffffffffffffffffffff168373ffffffffffffffffffffffffffffffffffffffff1603612779576040517f08c379a000000000000000000000000000000000000000000000000000000000815260040161277090615846565b60405180910390fd5b80600560008573ffffffffffffffffffffffffffffffffffffffff1673ffffffffffffffffffffffffffffffffffffffff16815260200190815260200160002060008473ffffffffffffffffffffffffffffffffffffffff1673ffffffffffffffffffffffffffffffffffffffff16815260200190815260200160002060006101000a81548160ff0219169083151502179055508173ffffffffffffffffffffffffffffffffffffffff168373ffffffffffffffffffffffffffffffffffffffff167f17307eab39ab6107e8899845ad3d59bd9653f200f220920489ca2b5937696c318360405161286a9190613de8565b60405180910390a3505050565b612882848484612291565b61288e84848484613289565b6128cd576040517f08c379a00000000000000000000000000000000000000000000000000000000081526004016128c4906158d8565b60405180910390fd5b50505050565b60008073ffffffffffffffffffffffffffffffffffffffff166128f583612608565b73ffffffffffffffffffffffffffffffffffffffff1614159050919050565b606061291f826120f0565b6000600a6000848152602001908152602001600020805461293f90614c45565b80601f016020809104026020016040519081016040528092919081815260200182805461296b90614c45565b80156129b85780601f1061298d576101008083540402835291602001916129b8565b820191906000526020600020905b81548152906001019060200180831161299b57829003601f168201915b5050505050905060006129c9613410565b905060008151036129de578192505050612a21565b600082511115612a135780826040516020016129fb9291906158f8565b60405160208183030381529060405292505050612a21565b612a1c84613427565b925050505b919050565b60007f80ac58cd000000000000000000000000000000000000000000000000000000007bffffffffffffffffffffffffffffffffffffffffffffffffffffffff1916827bffffffffffffffffffffffffffffffffffffffffffffffffffffffff19161480612af157507f5b5e139f000000000000000000000000000000000000000000000000000000007bffffffffffffffffffffffffffffffffffffffffffffffffffffffff1916827bffffffffffffffffffffffffffffffffffffffffffffffffffffffff1916145b80612b015750612b008261348f565b5b9050919050565b600080600090507a184f03e93ff9f4daa797ed6e38ed64bf6a1f0100000000000000008310612b66577a184f03e93ff9f4daa797ed6e38ed64bf6a1f0100000000000000008381612b5c57612b5b615536565b5b0492506040810190505b6d04ee2d6d415b85acef81000000008310612ba3576d04ee2d6d415b85acef81000000008381612b9957612b98615536565b5b0492506020810190505b662386f26fc100008310612bd257662386f26fc100008381612bc857612bc7615536565b5b0492506010810190505b6305f5e1008310612bfb576305f5e1008381612bf157612bf0615536565b5b0492506008810190505b6127108310612c20576127108381612c1657612c15615536565b5b0492506004810190505b60648310612c435760648381612c3957612c38615536565b5b0492506002810190505b600a8310612c52576001810190505b80915050919050565b612c6583836134f9565b612c726000848484613289565b612cb1576040517f08c379a0000000000000000000000000000000000000000000000000000000008152600401612ca8906158d8565b60405180910390fd5b505050565b6000600e8381548110612ccc57612ccb6151ce565b5b9060005260206000209060080201604051806101000160405290816000820160009054906101000a900473ffffffffffffffffffffffffffffffffffffffff1673ffffffffffffffffffffffffffffffffffffffff1673ffffffffffffffffffffffffffffffffffffffff1681526020016001820160009054906101000a900473ffffffffffffffffffffffffffffffffffffffff1673ffffffffffffffffffffffffffffffffffffffff1673ffffffffffffffffffffffffffffffffffffffff168152602001600282018054612da290614c45565b80601f0160208091040260200160405190810160405280929190818152602001828054612dce90614c45565b8015612e1b5780601f10612df057610100808354040283529160200191612e1b565b820191906000526020600020905b815481529060010190602001808311612dfe57829003601f168201915b50505050508152602001600382018054612e3490614c45565b80601f0160208091040260200160405190810160405280929190818152602001828054612e6090614c45565b8015612ead5780601f10612e8257610100808354040283529160200191612ead565b820191906000526020600020905b815481529060010190602001808311612e9057829003601f168201915b50505050508152602001600482018054612ec690614c45565b80601f0160208091040260200160405190810160405280929190818152602001828054612ef290614c45565b8015612f3f5780601f10612f1457610100808354040283529160200191612f3f565b820191906000526020600020905b815481529060010190602001808311612f2257829003601f168201915b50505050508152602001600582018054612f5890614c45565b80601f0160208091040260200160405190810160405280929190818152602001828054612f8490614c45565b8015612fd15780601f10612fa657610100808354040283529160200191612fd1565b820191906000526020600020905b815481529060010190602001808311612fb457829003601f168201915b50505050508152602001600682018054612fea90614c45565b80601f016020809104026020016040519081016040528092919081815260200182805461301690614c45565b80156130635780601f1061303857610100808354040283529160200191613063565b820191906000526020600020905b81548152906001019060200180831161304657829003601f168201915b5050505050815260200160078201805461307c90614c45565b80601f01602080910402602001604051908101604052809291908181526020018280546130a890614c45565b80156130f55780601f106130ca576101008083540402835291602001916130f5565b820191906000526020600020905b8154815290600101906020018083116130d857829003601f168201915b505050505081525050905083816020019073ffffffffffffffffffffffffffffffffffffffff16908173ffffffffffffffffffffffffffffffffffffffff168152505080600e848154811061314d5761314c6151ce565b5b906000526020600020906008020160008201518160000160006101000a81548173ffffffffffffffffffffffffffffffffffffffff021916908373ffffffffffffffffffffffffffffffffffffffff16021790555060208201518160010160006101000a81548173ffffffffffffffffffffffffffffffffffffffff021916908373ffffffffffffffffffffffffffffffffffffffff16021790555060408201518160020190816131fe9190614e22565b5060608201518160030190816132149190614e22565b50608082015181600401908161322a9190614e22565b5060a08201518160050190816132409190614e22565b5060c08201518160060190816132569190614e22565b5060e082015181600701908161326c9190614e22565b5090505061327c85858585613716565b5050505050565b50505050565b60006132aa8473ffffffffffffffffffffffffffffffffffffffff16613874565b15613403578373ffffffffffffffffffffffffffffffffffffffff1663150b7a026132d361213b565b8786866040518563ffffffff1660e01b81526004016132f59493929190615971565b6020604051808303816000875af192505050801561333157506040513d601f19601f8201168201806040525081019061332e91906159d2565b60015b6133b3573d8060008114613361576040519150601f19603f3d011682016040523d82523d6000602084013e613366565b606091505b5060008151036133ab576040517f08c379a00000000000000000000000000000000000000000000000000000000081526004016133a2906158d8565b60405180910390fd5b805181602001fd5b63150b7a0260e01b7bffffffffffffffffffffffffffffffffffffffffffffffffffffffff1916817bffffffffffffffffffffffffffffffffffffffffffffffffffffffff191614915050613408565b600190505b949350505050565b606060405180602001604052806000815250905090565b6060613432826120f0565b600061343c613410565b9050600081511161345c5760405180602001604052806000815250613487565b8061346684611e1e565b6040516020016134779291906158f8565b6040516020818303038152906040525b915050919050565b60007f01ffc9a7000000000000000000000000000000000000000000000000000000007bffffffffffffffffffffffffffffffffffffffffffffffffffffffff1916827bffffffffffffffffffffffffffffffffffffffffffffffffffffffff1916149050919050565b600073ffffffffffffffffffffffffffffffffffffffff168273ffffffffffffffffffffffffffffffffffffffff1603613568576040517f08c379a000000000000000000000000000000000000000000000000000000000815260040161355f90615a4b565b60405180910390fd5b613571816128d3565b156135b1576040517f08c379a00000000000000000000000000000000000000000000000000000000081526004016135a890615ab7565b60405180910390fd5b6135bf600083836001612cb6565b6135c8816128d3565b15613608576040517f08c379a00000000000000000000000000000000000000000000000000000000081526004016135ff90615ab7565b60405180910390fd5b6001600360008473ffffffffffffffffffffffffffffffffffffffff1673ffffffffffffffffffffffffffffffffffffffff16815260200190815260200160002060008282540192505081905550816002600083815260200190815260200160002060006101000a81548173ffffffffffffffffffffffffffffffffffffffff021916908373ffffffffffffffffffffffffffffffffffffffff160217905550808273ffffffffffffffffffffffffffffffffffffffff16600073ffffffffffffffffffffffffffffffffffffffff167fddf252ad1be2c89b69c2b068fc378daa952ba7f163c4a11628f55a4df523b3ef60405160405180910390a4613712600083836001613283565b5050565b61372284848484613897565b6001811115613766576040517f08c379a000000000000000000000000000000000000000000000000000000000815260040161375d90615b49565b60405180910390fd5b6000829050600073ffffffffffffffffffffffffffffffffffffffff168573ffffffffffffffffffffffffffffffffffffffff16036137ad576137a8816139bd565b6137ec565b8373ffffffffffffffffffffffffffffffffffffffff168573ffffffffffffffffffffffffffffffffffffffff16146137eb576137ea8582613a06565b5b5b600073ffffffffffffffffffffffffffffffffffffffff168473ffffffffffffffffffffffffffffffffffffffff160361382e5761382981613b73565b61386d565b8473ffffffffffffffffffffffffffffffffffffffff168473ffffffffffffffffffffffffffffffffffffffff161461386c5761386b8482613c44565b5b5b5050505050565b6000808273ffffffffffffffffffffffffffffffffffffffff163b119050919050565b60018111156139b757600073ffffffffffffffffffffffffffffffffffffffff168473ffffffffffffffffffffffffffffffffffffffff161461392b5780600360008673ffffffffffffffffffffffffffffffffffffffff1673ffffffffffffffffffffffffffffffffffffffff16815260200190815260200160002060008282546139239190615b69565b925050819055505b600073ffffffffffffffffffffffffffffffffffffffff168373ffffffffffffffffffffffffffffffffffffffff16146139b65780600360008573ffffffffffffffffffffffffffffffffffffffff1673ffffffffffffffffffffffffffffffffffffffff16815260200190815260200160002060008282546139ae919061522c565b925050819055505b5b50505050565b6008805490506009600083815260200190815260200160002081905550600881908060018154018082558091505060019003906000526020600020016000909190919091505550565b60006001613a1384611588565b613a1d9190615b69565b9050600060076000848152602001908152602001600020549050818114613b02576000600660008673ffffffffffffffffffffffffffffffffffffffff1673ffffffffffffffffffffffffffffffffffffffff168152602001908152602001600020600084815260200190815260200160002054905080600660008773ffffffffffffffffffffffffffffffffffffffff1673ffffffffffffffffffffffffffffffffffffffff168152602001908152602001600020600084815260200190815260200160002081905550816007600083815260200190815260200160002081905550505b6007600084815260200190815260200160002060009055600660008573ffffffffffffffffffffffffffffffffffffffff1673ffffffffffffffffffffffffffffffffffffffff16815260200190815260200160002060008381526020019081526020016000206000905550505050565b60006001600880549050613b879190615b69565b9050600060096000848152602001908152602001600020549050600060088381548110613bb757613bb66151ce565b5b906000526020600020015490508060088381548110613bd957613bd86151ce565b5b906000526020600020018190555081600960008381526020019081526020016000208190555060096000858152602001908152602001600020600090556008805480613c2857613c27615b9d565b5b6001900381819060005260206000200160009055905550505050565b6000613c4f83611588565b905081600660008573ffffffffffffffffffffffffffffffffffffffff1673ffffffffffffffffffffffffffffffffffffffff168152602001908152602001600020600083815260200190815260200160002081905550806007600084815260200190815260200160002081905550505050565b604051806101000160405280600073ffffffffffffffffffffffffffffffffffffffff168152602001600073ffffffffffffffffffffffffffffffffffffffff1681526020016060815260200160608152602001606081526020016060815260200160608152602001606081525090565b6000604051905090565b600080fd5b600080fd5b60007fffffffff0000000000000000000000000000000000000000000000000000000082169050919050565b613d7d81613d48565b8114613d8857600080fd5b50565b600081359050613d9a81613d74565b92915050565b600060208284031215613db657613db5613d3e565b5b6000613dc484828501613d8b565b91505092915050565b60008115159050919050565b613de281613dcd565b82525050565b6000602082019050613dfd6000830184613dd9565b92915050565b600080fd5b600080fd5b6000601f19601f8301169050919050565b7f4e487b7100000000000000000000000000000000000000000000000000000000600052604160045260246000fd5b613e5682613e0d565b810181811067ffffffffffffffff82111715613e7557613e74613e1e565b5b80604052505050565b6000613e88613d34565b9050613e948282613e4d565b919050565b600067ffffffffffffffff821115613eb457613eb3613e1e565b5b613ebd82613e0d565b9050602081019050919050565b82818337600083830152505050565b6000613eec613ee784613e99565b613e7e565b905082815260208101848484011115613f0857613f07613e08565b5b613f13848285613eca565b509392505050565b600082601f830112613f3057613f2f613e03565b5b8135613f40848260208601613ed9565b91505092915050565b60008060008060808587031215613f6357613f62613d3e565b5b600085013567ffffffffffffffff811115613f8157613f80613d43565b5b613f8d87828801613f1b565b945050602085013567ffffffffffffffff811115613fae57613fad613d43565b5b613fba87828801613f1b565b935050604085013567ffffffffffffffff811115613fdb57613fda613d43565b5b613fe787828801613f1b565b925050606085013567ffffffffffffffff81111561400857614007613d43565b5b61401487828801613f1b565b91505092959194509250565b600081519050919050565b600082825260208201905092915050565b60005b8381101561405a57808201518184015260208101905061403f565b60008484015250505050565b600061407182614020565b61407b818561402b565b935061408b81856020860161403c565b61409481613e0d565b840191505092915050565b600060208201905081810360008301526140b98184614066565b905092915050565b6000819050919050565b6140d4816140c1565b81146140df57600080fd5b50565b6000813590506140f1816140cb565b92915050565b60006020828403121561410d5761410c613d3e565b5b600061411b848285016140e2565b91505092915050565b600073ffffffffffffffffffffffffffffffffffffffff82169050919050565b600061414f82614124565b9050919050565b61415f81614144565b82525050565b600060208201905061417a6000830184614156565b92915050565b61418981614144565b811461419457600080fd5b50565b6000813590506141a681614180565b92915050565b600080604083850312156141c3576141c2613d3e565b5b60006141d185828601614197565b92505060206141e2858286016140e2565b9150509250929050565b6141f5816140c1565b82525050565b600060208201905061421060008301846141ec565b92915050565b60008060006060848603121561422f5761422e613d3e565b5b600061423d86828701614197565b935050602061424e86828701614197565b925050604061425f868287016140e2565b9150509250925092565b600080600080600060a0868803121561428557614284613d3e565b5b600061429388828901614197565b955050602086013567ffffffffffffffff8111156142b4576142b3613d43565b5b6142c088828901613f1b565b945050604086013567ffffffffffffffff8111156142e1576142e0613d43565b5b6142ed88828901613f1b565b935050606086013567ffffffffffffffff81111561430e5761430d613d43565b5b61431a88828901613f1b565b925050608086013567ffffffffffffffff81111561433b5761433a613d43565b5b61434788828901613f1b565b9150509295509295909350565b60006020828403121561436a57614369613d3e565b5b600061437884828501614197565b91505092915050565b600081519050919050565b600082825260208201905092915050565b6000819050602082019050919050565b60006143b882614124565b9050919050565b6143c8816143ad565b82525050565b6143d781614144565b82525050565b600082825260208201905092915050565b60006143f982614020565b61440381856143dd565b935061441381856020860161403c565b61441c81613e0d565b840191505092915050565b60006101008301600083015161444060008601826143bf565b50602083015161445360208601826143ce565b506040830151848203604086015261446b82826143ee565b9150506060830151848203606086015261448582826143ee565b9150506080830151848203608086015261449f82826143ee565b91505060a083015184820360a08601526144b982826143ee565b91505060c083015184820360c08601526144d382826143ee565b91505060e083015184820360e08601526144ed82826143ee565b9150508091505092915050565b60006145068383614427565b905092915050565b6000602082019050919050565b600061452682614381565b614530818561438c565b9350836020820285016145428561439d565b8060005b8581101561457e578484038952815161455f85826144fa565b945061456a8361450e565b925060208a01995050600181019050614546565b50829750879550505050505092915050565b600060208201905081810360008301526145aa818461451b565b905092915050565b6145bb81613dcd565b81146145c657600080fd5b50565b6000813590506145d8816145b2565b92915050565b600080604083850312156145f5576145f4613d3e565b5b600061460385828601614197565b9250506020614614858286016145c9565b9150509250929050565b600067ffffffffffffffff82111561463957614638613e1e565b5b61464282613e0d565b9050602081019050919050565b600061466261465d8461461e565b613e7e565b90508281526020810184848401111561467e5761467d613e08565b5b614689848285613eca565b509392505050565b600082601f8301126146a6576146a5613e03565b5b81356146b684826020860161464f565b91505092915050565b600080600080608085870312156146d9576146d8613d3e565b5b60006146e787828801614197565b94505060206146f887828801614197565b9350506040614709878288016140e2565b925050606085013567ffffffffffffffff81111561472a57614729613d43565b5b61473687828801614691565b91505092959194509250565b6000806040838503121561475957614758613d3e565b5b600061476785828601614197565b925050602061477885828601614197565b9150509250929050565b61478b816143ad565b82525050565b60006020820190506147a66000830184614782565b92915050565b600081905092915050565b7f207b20226e616d6522203a20224b697262616e6b546f6b656e23000000000000600082015250565b60006147ed601a836147ac565b91506147f8826147b7565b601a82019050919050565b600061480e82614020565b61481881856147ac565b935061482881856020860161403c565b80840191505092915050565b7f22202c20226465736372697074696f6e22203a20224b697262616e6b546f6b6560008201527f6e20657320756e69636f206520696e76616c7561626c6522202c2022696d616760208201527f65223a2200000000000000000000000000000000000000000000000000000000604082015250565b60006148b66044836147ac565b91506148c182614834565b604482019050919050565b7f222c202273796d626f6c22203a20224b42542200000000000000000000000000600082015250565b60006149026013836147ac565b915061490d826148cc565b601382019050919050565b7f2c2022636f737422203a20220000000000000000000000000000000000000000600082015250565b600061494e600c836147ac565b915061495982614918565b600c82019050919050565b7f222c2022616d6f756e7422203a20220000000000000000000000000000000000600082015250565b600061499a600f836147ac565b91506149a582614964565b600f82019050919050565b7f222c2022796561727353657422203a2022000000000000000000000000000000600082015250565b60006149e66011836147ac565b91506149f1826149b0565b601182019050919050565b7f222c20226461746543726561746522203a202200000000000000000000000000600082015250565b6000614a326013836147ac565b9150614a3d826149fc565b601382019050919050565b7f222c2022746f6b656e496422203a202200000000000000000000000000000000600082015250565b6000614a7e6010836147ac565b9150614a8982614a48565b601082019050919050565b7f22207d2000000000000000000000000000000000000000000000000000000000600082015250565b6000614aca6004836147ac565b9150614ad582614a94565b600482019050919050565b6000614aeb826147e0565b9150614af7828a614803565b9150614b02826148a9565b9150614b0e8289614803565b9150614b19826148f5565b9150614b2482614941565b9150614b308288614803565b9150614b3b8261498d565b9150614b478287614803565b9150614b52826149d9565b9150614b5e8286614803565b9150614b6982614a25565b9150614b758285614803565b9150614b8082614a71565b9150614b8c8284614803565b9150614b9782614abd565b915081905098975050505050505050565b7f646174613a6170706c69636174696f6e2f6a736f6e3b6261736536342c000000600082015250565b6000614bde601d836147ac565b9150614be982614ba8565b601d82019050919050565b6000614bff82614bd1565b9150614c0b8284614803565b915081905092915050565b7f4e487b7100000000000000000000000000000000000000000000000000000000600052602260045260246000fd5b60006002820490506001821680614c5d57607f821691505b602082108103614c7057614c6f614c16565b5b50919050565b60008190508160005260206000209050919050565b60006020601f8301049050919050565b600082821b905092915050565b600060088302614cd87fffffffffffffffffffffffffffffffffffffffffffffffffffffffffffffffff82614c9b565b614ce28683614c9b565b95508019841693508086168417925050509392505050565b6000819050919050565b6000614d1f614d1a614d15846140c1565b614cfa565b6140c1565b9050919050565b6000819050919050565b614d3983614d04565b614d4d614d4582614d26565b848454614ca8565b825550505050565b600090565b614d62614d55565b614d6d818484614d30565b505050565b5b81811015614d9157614d86600082614d5a565b600181019050614d73565b5050565b601f821115614dd657614da781614c76565b614db084614c8b565b81016020851015614dbf578190505b614dd3614dcb85614c8b565b830182614d72565b50505b505050565b600082821c905092915050565b6000614df960001984600802614ddb565b1980831691505092915050565b6000614e128383614de8565b9150826002028217905092915050565b614e2b82614020565b67ffffffffffffffff811115614e4457614e43613e1e565b5b614e4e8254614c45565b614e59828285614d95565b600060209050601f831160018114614e8c5760008415614e7a578287015190505b614e848582614e06565b865550614eec565b601f198416614e9a86614c76565b60005b82811015614ec257848901518255600182019150602085019450602081019050614e9d565b86831015614edf5784890151614edb601f891682614de8565b8355505b6001600288020188555050505b505050505050565b7f4552433732313a20617070726f76616c20746f2063757272656e74206f776e6560008201527f7200000000000000000000000000000000000000000000000000000000000000602082015250565b6000614f5060218361402b565b9150614f5b82614ef4565b604082019050919050565b60006020820190508181036000830152614f7f81614f43565b9050919050565b7f4552433732313a20617070726f76652063616c6c6572206973206e6f7420746f60008201527f6b656e206f776e6572206f7220617070726f76656420666f7220616c6c000000602082015250565b6000614fe2603d8361402b565b9150614fed82614f86565b604082019050919050565b6000602082019050818103600083015261501181614fd5565b9050919050565b7f4552433732313a2063616c6c6572206973206e6f7420746f6b656e206f776e6560008201527f72206f7220617070726f76656400000000000000000000000000000000000000602082015250565b6000615074602d8361402b565b915061507f82615018565b604082019050919050565b600060208201905081810360008301526150a381615067565b9050919050565b7f4465626520656e76696172206574686572732070617261207265616c697a617260008201527f20756e61206f7065726163696f6e206465206d696e74696e6700000000000000602082015250565b600061510660398361402b565b9150615111826150aa565b604082019050919050565b60006020820190508181036000830152615135816150f9565b9050919050565b7f455243373231456e756d657261626c653a206f776e657220696e646578206f7560008201527f74206f6620626f756e6473000000000000000000000000000000000000000000602082015250565b6000615198602b8361402b565b91506151a38261513c565b604082019050919050565b600060208201905081810360008301526151c78161518b565b9050919050565b7f4e487b7100000000000000000000000000000000000000000000000000000000600052603260045260246000fd5b7f4e487b7100000000000000000000000000000000000000000000000000000000600052601160045260246000fd5b6000615237826140c1565b9150615242836140c1565b925082820190508082111561525a576152596151fd565b5b92915050565b600061526b826140c1565b91507fffffffffffffffffffffffffffffffffffffffffffffffffffffffffffffffff820361529d5761529c6151fd565b5b600182019050919050565b7f455243373231456e756d657261626c653a20676c6f62616c20696e646578206f60008201527f7574206f6620626f756e64730000000000000000000000000000000000000000602082015250565b6000615304602c8361402b565b915061530f826152a8565b604082019050919050565b60006020820190508181036000830152615333816152f7565b9050919050565b7f4552433732313a20696e76616c696420746f6b656e2049440000000000000000600082015250565b600061537060188361402b565b915061537b8261533a565b602082019050919050565b6000602082019050818103600083015261539f81615363565b9050919050565b7f4552433732313a2061646472657373207a65726f206973206e6f74206120766160008201527f6c6964206f776e65720000000000000000000000000000000000000000000000602082015250565b600061540260298361402b565b915061540d826153a6565b604082019050919050565b60006020820190508181036000830152615431816153f5565b9050919050565b7f456c2069642064656c20546f6b656e206e6f2065732076616c69646f00000000600082015250565b600061546e601c8361402b565b915061547982615438565b602082019050919050565b6000602082019050818103600083015261549d81615461565b9050919050565b7f4f776e61626c653a206e6577206f776e657220697320746865207a65726f206160008201527f6464726573730000000000000000000000000000000000000000000000000000602082015250565b600061550060268361402b565b915061550b826154a4565b604082019050919050565b6000602082019050818103600083015261552f816154f3565b9050919050565b7f4e487b7100000000000000000000000000000000000000000000000000000000600052601260045260246000fd5b6000615570826140c1565b915061557b836140c1565b92508261558b5761558a615536565b5b828204905092915050565b60006155a1826140c1565b91506155ac836140c1565b92508282026155ba816140c1565b915082820484148315176155d1576155d06151fd565b5b5092915050565b7f45524337323155524953746f726167653a2055524920736574206f66206e6f6e60008201527f6578697374656e7420746f6b656e000000000000000000000000000000000000602082015250565b6000615634602e8361402b565b915061563f826155d8565b604082019050919050565b6000602082019050818103600083015261566381615627565b9050919050565b7f4552433732313a207472616e736665722066726f6d20696e636f72726563742060008201527f6f776e6572000000000000000000000000000000000000000000000000000000602082015250565b60006156c660258361402b565b91506156d18261566a565b604082019050919050565b600060208201905081810360008301526156f5816156b9565b9050919050565b7f4552433732313a207472616e7366657220746f20746865207a65726f2061646460008201527f7265737300000000000000000000000000000000000000000000000000000000602082015250565b600061575860248361402b565b9150615763826156fc565b604082019050919050565b600060208201905081810360008301526157878161574b565b9050919050565b7f4f776e61626c653a2063616c6c6572206973206e6f7420746865206f776e6572600082015250565b60006157c460208361402b565b91506157cf8261578e565b602082019050919050565b600060208201905081810360008301526157f3816157b7565b9050919050565b7f4552433732313a20617070726f766520746f2063616c6c657200000000000000600082015250565b600061583060198361402b565b915061583b826157fa565b602082019050919050565b6000602082019050818103600083015261585f81615823565b9050919050565b7f4552433732313a207472616e7366657220746f206e6f6e20455243373231526560008201527f63656976657220696d706c656d656e7465720000000000000000000000000000602082015250565b60006158c260328361402b565b91506158cd82615866565b604082019050919050565b600060208201905081810360008301526158f1816158b5565b9050919050565b60006159048285614803565b91506159108284614803565b91508190509392505050565b600081519050919050565b600082825260208201905092915050565b60006159438261591c565b61594d8185615927565b935061595d81856020860161403c565b61596681613e0d565b840191505092915050565b60006080820190506159866000830187614156565b6159936020830186614156565b6159a060408301856141ec565b81810360608301526159b28184615938565b905095945050505050565b6000815190506159cc81613d74565b92915050565b6000602082840312156159e8576159e7613d3e565b5b60006159f6848285016159bd565b91505092915050565b7f4552433732313a206d696e7420746f20746865207a65726f2061646472657373600082015250565b6000615a3560208361402b565b9150615a40826159ff565b602082019050919050565b60006020820190508181036000830152615a6481615a28565b9050919050565b7f4552433732313a20746f6b656e20616c7265616479206d696e74656400000000600082015250565b6000615aa1601c8361402b565b9150615aac82615a6b565b602082019050919050565b60006020820190508181036000830152615ad081615a94565b9050919050565b7f455243373231456e756d657261626c653a20636f6e736563757469766520747260008201527f616e7366657273206e6f7420737570706f727465640000000000000000000000602082015250565b6000615b3360358361402b565b9150615b3e82615ad7565b604082019050919050565b60006020820190508181036000830152615b6281615b26565b9050919050565b6000615b74826140c1565b9150615b7f836140c1565b9250828203905081811115615b9757615b966151fd565b5b92915050565b7f4e487b7100000000000000000000000000000000000000000000000000000000600052603160045260246000fdfe4142434445464748494a4b4c4d4e4f505152535455565758595a6162636465666768696a6b6c6d6e6f707172737475767778797a303132333435363738392b2fa2646970667358221220eebed1b058e4301013d7531dc61c258a6cc5850a96a8dac52ca007fbcd94aca864736f6c63430008110033",
  "linkReferences": {},
  "deployedLinkReferences": {}
}