{
  "_format": "hh-sol-artifact-1",
  "contractName": "KirbankToken",
  "sourceName": "contracts/KirbankToken.sol",
  "abi": [
    {
      "inputs": [],
      "stateMutability": "nonpayable",
      "type": "constructor"
    },
    {
      "inputs": [
        {
          "internalType": "string",
          "name": "imageUrl",
          "type": "string"
        },
        {
          "internalType": "string",
          "name": "cost",
          "type": "string"
        },
        {
          "internalType": "string",
          "name": "yearsSet",
          "type": "string"
        },
        {
          "internalType": "string",
          "name": "dateCreate",
          "type": "string"
        }
      ],
      "name": "addKirbankToken",
      "outputs": [],
      "stateMutability": "nonpayable",
      "type": "function"
    },
    {
      "inputs": [],
      "name": "getAllKirbankTokens",
      "outputs": [
        {
          "components": [
            {
              "internalType": "address",
              "name": "owner",
              "type": "address"
            },
            {
              "internalType": "string",
              "name": "imageUrl",
              "type": "string"
            },
            {
              "internalType": "string",
              "name": "cost",
              "type": "string"
            },
            {
              "internalType": "string",
              "name": "yearsSet",
              "type": "string"
            },
            {
              "internalType": "string",
              "name": "dateCreate",
              "type": "string"
            }
          ],
          "internalType": "struct KirbankToken.KirbankTokenItem[]",
          "name": "",
          "type": "tuple[]"
        }
      ],
      "stateMutability": "view",
      "type": "function"
    },
    {
      "inputs": [],
      "name": "getKirbankTokensByOwner",
      "outputs": [
        {
          "components": [
            {
              "internalType": "address",
              "name": "owner",
              "type": "address"
            },
            {
              "internalType": "string",
              "name": "imageUrl",
              "type": "string"
            },
            {
              "internalType": "string",
              "name": "cost",
              "type": "string"
            },
            {
              "internalType": "string",
              "name": "yearsSet",
              "type": "string"
            },
            {
              "internalType": "string",
              "name": "dateCreate",
              "type": "string"
            }
          ],
          "internalType": "struct KirbankToken.KirbankTokenItem[]",
          "name": "",
          "type": "tuple[]"
        }
      ],
      "stateMutability": "view",
      "type": "function"
    }
  ],
  "bytecode": "0x608060405234801561001057600080fd5b506111ec806100206000396000f3fe608060405234801561001057600080fd5b50600436106100415760003560e01c80634c8f90c7146100465780639737d1a514610064578063e5f5f55314610082575b600080fd5b61004e61009e565b60405161005b9190610bb2565b60405180910390f35b61006c610543565b6040516100799190610bb2565b60405180910390f35b61009c60048036038101906100979190610d1d565b610840565b005b60606000805b60008054905081101561014c573373ffffffffffffffffffffffffffffffffffffffff16600082815481106100dc576100db610df4565b5b906000526020600020906005020160000160009054906101000a900473ffffffffffffffffffffffffffffffffffffffff1673ffffffffffffffffffffffffffffffffffffffff1603610139576001826101369190610e5c565b91505b808061014490610e90565b9150506100a4565b5060008167ffffffffffffffff81111561016957610168610bf2565b5b6040519080825280602002602001820160405280156101a257816020015b61018f61094f565b8152602001906001900390816101875790505b5090506000805b600080549050811015610539573373ffffffffffffffffffffffffffffffffffffffff16600082815481106101e1576101e0610df4565b5b906000526020600020906005020160000160009054906101000a900473ffffffffffffffffffffffffffffffffffffffff1673ffffffffffffffffffffffffffffffffffffffff1603610526576000818154811061024257610241610df4565b5b90600052602060002090600502016040518060a00160405290816000820160009054906101000a900473ffffffffffffffffffffffffffffffffffffffff1673ffffffffffffffffffffffffffffffffffffffff1673ffffffffffffffffffffffffffffffffffffffff1681526020016001820180546102c190610f07565b80601f01602080910402602001604051908101604052809291908181526020018280546102ed90610f07565b801561033a5780601f1061030f5761010080835404028352916020019161033a565b820191906000526020600020905b81548152906001019060200180831161031d57829003601f168201915b5050505050815260200160028201805461035390610f07565b80601f016020809104026020016040519081016040528092919081815260200182805461037f90610f07565b80156103cc5780601f106103a1576101008083540402835291602001916103cc565b820191906000526020600020905b8154815290600101906020018083116103af57829003601f168201915b505050505081526020016003820180546103e590610f07565b80601f016020809104026020016040519081016040528092919081815260200182805461041190610f07565b801561045e5780601f106104335761010080835404028352916020019161045e565b820191906000526020600020905b81548152906001019060200180831161044157829003601f168201915b5050505050815260200160048201805461047790610f07565b80601f01602080910402602001604051908101604052809291908181526020018280546104a390610f07565b80156104f05780601f106104c5576101008083540402835291602001916104f0565b820191906000526020600020905b8154815290600101906020018083116104d357829003601f168201915b50505050508152505083838151811061050c5761050b610df4565b5b6020026020010181905250818061052290610e90565b9250505b808061053190610e90565b9150506101a9565b5081935050505090565b60606000805480602002602001604051908101604052809291908181526020016000905b8282101561083757838290600052602060002090600502016040518060a00160405290816000820160009054906101000a900473ffffffffffffffffffffffffffffffffffffffff1673ffffffffffffffffffffffffffffffffffffffff1673ffffffffffffffffffffffffffffffffffffffff1681526020016001820180546105f090610f07565b80601f016020809104026020016040519081016040528092919081815260200182805461061c90610f07565b80156106695780601f1061063e57610100808354040283529160200191610669565b820191906000526020600020905b81548152906001019060200180831161064c57829003601f168201915b5050505050815260200160028201805461068290610f07565b80601f01602080910402602001604051908101604052809291908181526020018280546106ae90610f07565b80156106fb5780601f106106d0576101008083540402835291602001916106fb565b820191906000526020600020905b8154815290600101906020018083116106de57829003601f168201915b5050505050815260200160038201805461071490610f07565b80601f016020809104026020016040519081016040528092919081815260200182805461074090610f07565b801561078d5780601f106107625761010080835404028352916020019161078d565b820191906000526020600020905b81548152906001019060200180831161077057829003601f168201915b505050505081526020016004820180546107a690610f07565b80601f01602080910402602001604051908101604052809291908181526020018280546107d290610f07565b801561081f5780601f106107f45761010080835404028352916020019161081f565b820191906000526020600020905b81548152906001019060200180831161080257829003601f168201915b50505050508152505081526020019060010190610567565b50505050905090565b60006040518060a001604052803373ffffffffffffffffffffffffffffffffffffffff16815260200186815260200185815260200184815260200183815250908060018154018082558091505060019003906000526020600020906005020160009091909190915060008201518160000160006101000a81548173ffffffffffffffffffffffffffffffffffffffff021916908373ffffffffffffffffffffffffffffffffffffffff160217905550602082015181600101908161090491906110e4565b50604082015181600201908161091a91906110e4565b50606082015181600301908161093091906110e4565b50608082015181600401908161094691906110e4565b50505050505050565b6040518060a00160405280600073ffffffffffffffffffffffffffffffffffffffff168152602001606081526020016060815260200160608152602001606081525090565b600081519050919050565b600082825260208201905092915050565b6000819050602082019050919050565b600073ffffffffffffffffffffffffffffffffffffffff82169050919050565b60006109eb826109c0565b9050919050565b6109fb816109e0565b82525050565b600081519050919050565b600082825260208201905092915050565b60005b83811015610a3b578082015181840152602081019050610a20565b60008484015250505050565b6000601f19601f8301169050919050565b6000610a6382610a01565b610a6d8185610a0c565b9350610a7d818560208601610a1d565b610a8681610a47565b840191505092915050565b600060a083016000830151610aa960008601826109f2565b5060208301518482036020860152610ac18282610a58565b91505060408301518482036040860152610adb8282610a58565b91505060608301518482036060860152610af58282610a58565b91505060808301518482036080860152610b0f8282610a58565b9150508091505092915050565b6000610b288383610a91565b905092915050565b6000602082019050919050565b6000610b4882610994565b610b52818561099f565b935083602082028501610b64856109b0565b8060005b85811015610ba05784840389528151610b818582610b1c565b9450610b8c83610b30565b925060208a01995050600181019050610b68565b50829750879550505050505092915050565b60006020820190508181036000830152610bcc8184610b3d565b905092915050565b6000604051905090565b600080fd5b600080fd5b600080fd5b600080fd5b7f4e487b7100000000000000000000000000000000000000000000000000000000600052604160045260246000fd5b610c2a82610a47565b810181811067ffffffffffffffff82111715610c4957610c48610bf2565b5b80604052505050565b6000610c5c610bd4565b9050610c688282610c21565b919050565b600067ffffffffffffffff821115610c8857610c87610bf2565b5b610c9182610a47565b9050602081019050919050565b82818337600083830152505050565b6000610cc0610cbb84610c6d565b610c52565b905082815260208101848484011115610cdc57610cdb610bed565b5b610ce7848285610c9e565b509392505050565b600082601f830112610d0457610d03610be8565b5b8135610d14848260208601610cad565b91505092915050565b60008060008060808587031215610d3757610d36610bde565b5b600085013567ffffffffffffffff811115610d5557610d54610be3565b5b610d6187828801610cef565b945050602085013567ffffffffffffffff811115610d8257610d81610be3565b5b610d8e87828801610cef565b935050604085013567ffffffffffffffff811115610daf57610dae610be3565b5b610dbb87828801610cef565b925050606085013567ffffffffffffffff811115610ddc57610ddb610be3565b5b610de887828801610cef565b91505092959194509250565b7f4e487b7100000000000000000000000000000000000000000000000000000000600052603260045260246000fd5b6000819050919050565b7f4e487b7100000000000000000000000000000000000000000000000000000000600052601160045260246000fd5b6000610e6782610e23565b9150610e7283610e23565b9250828201905080821115610e8a57610e89610e2d565b5b92915050565b6000610e9b82610e23565b91507fffffffffffffffffffffffffffffffffffffffffffffffffffffffffffffffff8203610ecd57610ecc610e2d565b5b600182019050919050565b7f4e487b7100000000000000000000000000000000000000000000000000000000600052602260045260246000fd5b60006002820490506001821680610f1f57607f821691505b602082108103610f3257610f31610ed8565b5b50919050565b60008190508160005260206000209050919050565b60006020601f8301049050919050565b600082821b905092915050565b600060088302610f9a7fffffffffffffffffffffffffffffffffffffffffffffffffffffffffffffffff82610f5d565b610fa48683610f5d565b95508019841693508086168417925050509392505050565b6000819050919050565b6000610fe1610fdc610fd784610e23565b610fbc565b610e23565b9050919050565b6000819050919050565b610ffb83610fc6565b61100f61100782610fe8565b848454610f6a565b825550505050565b600090565b611024611017565b61102f818484610ff2565b505050565b5b818110156110535761104860008261101c565b600181019050611035565b5050565b601f8211156110985761106981610f38565b61107284610f4d565b81016020851015611081578190505b61109561108d85610f4d565b830182611034565b50505b505050565b600082821c905092915050565b60006110bb6000198460080261109d565b1980831691505092915050565b60006110d483836110aa565b9150826002028217905092915050565b6110ed82610a01565b67ffffffffffffffff81111561110657611105610bf2565b5b6111108254610f07565b61111b828285611057565b600060209050601f83116001811461114e576000841561113c578287015190505b61114685826110c8565b8655506111ae565b601f19841661115c86610f38565b60005b828110156111845784890151825560018201915060208501945060208101905061115f565b868310156111a1578489015161119d601f8916826110aa565b8355505b6001600288020188555050505b50505050505056fea264697066735822122031e565290ab3e08f94d319ed8dd41437f89d57393b7b0d32af39a331a764e2f864736f6c63430008110033",
  "linkReferences": {},
  "deployedLinkReferences": {}
}